{
  "_format": "hh-sol-artifact-1",
  "contractName": "TrafficControl",
  "sourceName": "contracts/TrafficControl.sol",
  "abi": [
    {
      "inputs": [
        {
          "internalType": "address",
          "name": "initialOwner",
          "type": "address"
        }
      ],
      "stateMutability": "nonpayable",
      "type": "constructor"
    },
    {
      "inputs": [
        {
          "internalType": "address",
          "name": "owner",
          "type": "address"
        }
      ],
      "name": "OwnableInvalidOwner",
      "type": "error"
    },
    {
      "inputs": [
        {
          "internalType": "address",
          "name": "account",
          "type": "address"
        }
      ],
      "name": "OwnableUnauthorizedAccount",
      "type": "error"
    },
    {
      "anonymous": false,
      "inputs": [
        {
          "indexed": true,
          "internalType": "address",
          "name": "previousOwner",
          "type": "address"
        },
        {
          "indexed": true,
          "internalType": "address",
          "name": "newOwner",
          "type": "address"
        }
      ],
      "name": "OwnershipTransferred",
      "type": "event"
    },
    {
      "inputs": [],
      "name": "ACCESS_DURATION",
      "outputs": [
        {
          "internalType": "uint256",
          "name": "",
          "type": "uint256"
        }
      ],
      "stateMutability": "view",
      "type": "function"
    },
    {
      "inputs": [
        {
          "internalType": "uint256",
          "name": "",
          "type": "uint256"
        }
      ],
      "name": "intersections",
      "outputs": [
        {
          "internalType": "uint256",
          "name": "occupiedByTokenId",
          "type": "uint256"
        },
        {
          "internalType": "uint256",
          "name": "accessExpires",
          "type": "uint256"
        }
      ],
      "stateMutability": "view",
      "type": "function"
    },
    {
      "inputs": [],
      "name": "owner",
      "outputs": [
        {
          "internalType": "address",
          "name": "",
          "type": "address"
        }
      ],
      "stateMutability": "view",
      "type": "function"
    },
    {
      "inputs": [],
      "name": "renounceOwnership",
      "outputs": [],
      "stateMutability": "nonpayable",
      "type": "function"
    },
    {
      "inputs": [
        {
          "internalType": "uint256",
          "name": "_intersectionId",
          "type": "uint256"
        },
        {
          "internalType": "uint256",
          "name": "_tokenId",
          "type": "uint256"
        }
      ],
      "name": "requestIntersectionAccess",
      "outputs": [
        {
          "internalType": "bool",
          "name": "success",
          "type": "bool"
        }
      ],
      "stateMutability": "nonpayable",
      "type": "function"
    },
    {
      "inputs": [
        {
          "internalType": "address",
          "name": "newOwner",
          "type": "address"
        }
      ],
      "name": "transferOwnership",
      "outputs": [],
      "stateMutability": "nonpayable",
      "type": "function"
    }
  ],
  "bytecode": "0x608060405234801561001057600080fd5b506040516108c23803806108c2833981810160405281019061003291906101e2565b80600073ffffffffffffffffffffffffffffffffffffffff168173ffffffffffffffffffffffffffffffffffffffff16036100a55760006040517f1e4fbdf700000000000000000000000000000000000000000000000000000000815260040161009c919061021e565b60405180910390fd5b6100b4816100bb60201b60201c565b5050610239565b60008060009054906101000a900473ffffffffffffffffffffffffffffffffffffffff169050816000806101000a81548173ffffffffffffffffffffffffffffffffffffffff021916908373ffffffffffffffffffffffffffffffffffffffff1602179055508173ffffffffffffffffffffffffffffffffffffffff168173ffffffffffffffffffffffffffffffffffffffff167f8be0079c531659141344cd1fd0a4f28419497f9722a3daafe3b4186f6b6457e060405160405180910390a35050565b600080fd5b600073ffffffffffffffffffffffffffffffffffffffff82169050919050565b60006101af82610184565b9050919050565b6101bf816101a4565b81146101ca57600080fd5b50565b6000815190506101dc816101b6565b92915050565b6000602082840312156101f8576101f761017f565b5b6000610206848285016101cd565b91505092915050565b610218816101a4565b82525050565b6000602082019050610233600083018461020f565b92915050565b61067a806102486000396000f3fe608060405234801561001057600080fd5b50600436106100625760003560e01c80634bd3b6d11461006757806363a0cce614610098578063715018a6146100b65780638da5cb5b146100c0578063f2fde38b146100de578063f6837861146100fa575b600080fd5b610081600480360381019061007c9190610436565b61012a565b60405161008f929190610472565b60405180910390f35b6100a061014e565b6040516100ad919061049b565b60405180910390f35b6100be610153565b005b6100c8610167565b6040516100d591906104f7565b60405180910390f35b6100f860048036038101906100f3919061053e565b610190565b005b610114600480360381019061010f919061056b565b610216565b60405161012191906105c6565b60405180910390f35b60016020528060005260406000206000915090508060000154908060010154905082565b600a81565b61015b6102a8565b610165600061032f565b565b60008060009054906101000a900473ffffffffffffffffffffffffffffffffffffffff16905090565b6101986102a8565b600073ffffffffffffffffffffffffffffffffffffffff168173ffffffffffffffffffffffffffffffffffffffff160361020a5760006040517f1e4fbdf700000000000000000000000000000000000000000000000000000000815260040161020191906104f7565b60405180910390fd5b6102138161032f565b50565b600080600160008581526020019081526020016000209050600081600001541480610245575080600101544210155b1561027257828160000181905550600a426102609190610610565b816001018190555060019150506102a2565b828160000154146102875760009150506102a2565b600a426102949190610610565b816001018190555060019150505b92915050565b6102b06103f3565b73ffffffffffffffffffffffffffffffffffffffff166102ce610167565b73ffffffffffffffffffffffffffffffffffffffff161461032d576102f16103f3565b6040517f118cdaa700000000000000000000000000000000000000000000000000000000815260040161032491906104f7565b60405180910390fd5b565b60008060009054906101000a900473ffffffffffffffffffffffffffffffffffffffff169050816000806101000a81548173ffffffffffffffffffffffffffffffffffffffff021916908373ffffffffffffffffffffffffffffffffffffffff1602179055508173ffffffffffffffffffffffffffffffffffffffff168173ffffffffffffffffffffffffffffffffffffffff167f8be0079c531659141344cd1fd0a4f28419497f9722a3daafe3b4186f6b6457e060405160405180910390a35050565b600033905090565b600080fd5b6000819050919050565b61041381610400565b811461041e57600080fd5b50565b6000813590506104308161040a565b92915050565b60006020828403121561044c5761044b6103fb565b5b600061045a84828501610421565b91505092915050565b61046c81610400565b82525050565b60006040820190506104876000830185610463565b6104946020830184610463565b9392505050565b60006020820190506104b06000830184610463565b92915050565b600073ffffffffffffffffffffffffffffffffffffffff82169050919050565b60006104e1826104b6565b9050919050565b6104f1816104d6565b82525050565b600060208201905061050c60008301846104e8565b92915050565b61051b816104d6565b811461052657600080fd5b50565b60008135905061053881610512565b92915050565b600060208284031215610554576105536103fb565b5b600061056284828501610529565b91505092915050565b60008060408385031215610582576105816103fb565b5b600061059085828601610421565b92505060206105a185828601610421565b9150509250929050565b60008115159050919050565b6105c0816105ab565b82525050565b60006020820190506105db60008301846105b7565b92915050565b7f4e487b7100000000000000000000000000000000000000000000000000000000600052601160045260246000fd5b600061061b82610400565b915061062683610400565b925082820190508082111561063e5761063d6105e1565b5b9291505056fea2646970667358221220c725a7402907fe0c2819222c03502f54bd09e6fb95aedff98fe3b6a140405c4864736f6c63430008140033",
  "linkReferences": {},
  "deployedLinkReferences": {}
}