{
  "_format": "hh-sol-artifact-1",
  "contractName": "VehicleRegistry",
  "sourceName": "contracts/VehicleRegistry.sol",
  "abi": [
    {
      "inputs": [
        {
          "internalType": "address",
          "name": "initialOwner",
          "type": "address"
        },
        {
          "internalType": "address",
          "name": "trafficControlAddress",
          "type": "address"
        }
      ],
      "stateMutability": "nonpayable",
      "type": "constructor"
    },
    {
      "inputs": [
        {
          "internalType": "address",
          "name": "sender",
          "type": "address"
        },
        {
          "internalType": "uint256",
          "name": "tokenId",
          "type": "uint256"
        },
        {
          "internalType": "address",
          "name": "owner",
          "type": "address"
        }
      ],
      "name": "ERC721IncorrectOwner",
      "type": "error"
    },
    {
      "inputs": [
        {
          "internalType": "address",
          "name": "operator",
          "type": "address"
        },
        {
          "internalType": "uint256",
          "name": "tokenId",
          "type": "uint256"
        }
      ],
      "name": "ERC721InsufficientApproval",
      "type": "error"
    },
    {
      "inputs": [
        {
          "internalType": "address",
          "name": "approver",
          "type": "address"
        }
      ],
      "name": "ERC721InvalidApprover",
      "type": "error"
    },
    {
      "inputs": [
        {
          "internalType": "address",
          "name": "operator",
          "type": "address"
        }
      ],
      "name": "ERC721InvalidOperator",
      "type": "error"
    },
    {
      "inputs": [
        {
          "internalType": "address",
          "name": "owner",
          "type": "address"
        }
      ],
      "name": "ERC721InvalidOwner",
      "type": "error"
    },
    {
      "inputs": [
        {
          "internalType": "address",
          "name": "receiver",
          "type": "address"
        }
      ],
      "name": "ERC721InvalidReceiver",
      "type": "error"
    },
    {
      "inputs": [
        {
          "internalType": "address",
          "name": "sender",
          "type": "address"
        }
      ],
      "name": "ERC721InvalidSender",
      "type": "error"
    },
    {
      "inputs": [
        {
          "internalType": "uint256",
          "name": "tokenId",
          "type": "uint256"
        }
      ],
      "name": "ERC721NonexistentToken",
      "type": "error"
    },
    {
      "inputs": [
        {
          "internalType": "address",
          "name": "owner",
          "type": "address"
        }
      ],
      "name": "OwnableInvalidOwner",
      "type": "error"
    },
    {
      "inputs": [
        {
          "internalType": "address",
          "name": "account",
          "type": "address"
        }
      ],
      "name": "OwnableUnauthorizedAccount",
      "type": "error"
    },
    {
      "anonymous": false,
      "inputs": [
        {
          "indexed": true,
          "internalType": "address",
          "name": "owner",
          "type": "address"
        },
        {
          "indexed": true,
          "internalType": "address",
          "name": "approved",
          "type": "address"
        },
        {
          "indexed": true,
          "internalType": "uint256",
          "name": "tokenId",
          "type": "uint256"
        }
      ],
      "name": "Approval",
      "type": "event"
    },
    {
      "anonymous": false,
      "inputs": [
        {
          "indexed": true,
          "internalType": "address",
          "name": "owner",
          "type": "address"
        },
        {
          "indexed": true,
          "internalType": "address",
          "name": "operator",
          "type": "address"
        },
        {
          "indexed": false,
          "internalType": "bool",
          "name": "approved",
          "type": "bool"
        }
      ],
      "name": "ApprovalForAll",
      "type": "event"
    },
    {
      "anonymous": false,
      "inputs": [
        {
          "indexed": true,
          "internalType": "address",
          "name": "previousOwner",
          "type": "address"
        },
        {
          "indexed": true,
          "internalType": "address",
          "name": "newOwner",
          "type": "address"
        }
      ],
      "name": "OwnershipTransferred",
      "type": "event"
    },
    {
      "anonymous": false,
      "inputs": [
        {
          "indexed": true,
          "internalType": "address",
          "name": "from",
          "type": "address"
        },
        {
          "indexed": true,
          "internalType": "address",
          "name": "to",
          "type": "address"
        },
        {
          "indexed": true,
          "internalType": "uint256",
          "name": "tokenId",
          "type": "uint256"
        }
      ],
      "name": "Transfer",
      "type": "event"
    },
    {
      "inputs": [
        {
          "internalType": "address",
          "name": "to",
          "type": "address"
        },
        {
          "internalType": "uint256",
          "name": "tokenId",
          "type": "uint256"
        }
      ],
      "name": "approve",
      "outputs": [],
      "stateMutability": "nonpayable",
      "type": "function"
    },
    {
      "inputs": [
        {
          "internalType": "address",
          "name": "owner",
          "type": "address"
        }
      ],
      "name": "balanceOf",
      "outputs": [
        {
          "internalType": "uint256",
          "name": "",
          "type": "uint256"
        }
      ],
      "stateMutability": "view",
      "type": "function"
    },
    {
      "inputs": [
        {
          "internalType": "uint256",
          "name": "tokenId",
          "type": "uint256"
        }
      ],
      "name": "getApproved",
      "outputs": [
        {
          "internalType": "address",
          "name": "",
          "type": "address"
        }
      ],
      "stateMutability": "view",
      "type": "function"
    },
    {
      "inputs": [
        {
          "internalType": "uint256",
          "name": "_tokenId",
          "type": "uint256"
        }
      ],
      "name": "getVehicleState",
      "outputs": [
        {
          "components": [
            {
              "internalType": "uint256",
              "name": "tokenId",
              "type": "uint256"
            },
            {
              "internalType": "string",
              "name": "location",
              "type": "string"
            },
            {
              "internalType": "uint256",
              "name": "speed",
              "type": "uint256"
            },
            {
              "internalType": "uint256",
              "name": "lastUpdateTime",
              "type": "uint256"
            },
            {
              "internalType": "enum VehicleRegistry.VehicleStatus",
              "name": "status",
              "type": "uint8"
            }
          ],
          "internalType": "struct VehicleRegistry.Vehicle",
          "name": "",
          "type": "tuple"
        }
      ],
      "stateMutability": "view",
      "type": "function"
    },
    {
      "inputs": [
        {
          "internalType": "address",
          "name": "owner",
          "type": "address"
        },
        {
          "internalType": "address",
          "name": "operator",
          "type": "address"
        }
      ],
      "name": "isApprovedForAll",
      "outputs": [
        {
          "internalType": "bool",
          "name": "",
          "type": "bool"
        }
      ],
      "stateMutability": "view",
      "type": "function"
    },
    {
      "inputs": [],
      "name": "name",
      "outputs": [
        {
          "internalType": "string",
          "name": "",
          "type": "string"
        }
      ],
      "stateMutability": "view",
      "type": "function"
    },
    {
      "inputs": [],
      "name": "owner",
      "outputs": [
        {
          "internalType": "address",
          "name": "",
          "type": "address"
        }
      ],
      "stateMutability": "view",
      "type": "function"
    },
    {
      "inputs": [
        {
          "internalType": "uint256",
          "name": "tokenId",
          "type": "uint256"
        }
      ],
      "name": "ownerOf",
      "outputs": [
        {
          "internalType": "address",
          "name": "",
          "type": "address"
        }
      ],
      "stateMutability": "view",
      "type": "function"
    },
    {
      "inputs": [
        {
          "internalType": "address",
          "name": "_owner",
          "type": "address"
        },
        {
          "internalType": "string",
          "name": "_initialLocation",
          "type": "string"
        }
      ],
      "name": "registerVehicle",
      "outputs": [
        {
          "internalType": "uint256",
          "name": "",
          "type": "uint256"
        }
      ],
      "stateMutability": "nonpayable",
      "type": "function"
    },
    {
      "inputs": [],
      "name": "renounceOwnership",
      "outputs": [],
      "stateMutability": "nonpayable",
      "type": "function"
    },
    {
      "inputs": [
        {
          "internalType": "uint256",
          "name": "_intersectionId",
          "type": "uint256"
        }
      ],
      "name": "requestToCross",
      "outputs": [],
      "stateMutability": "nonpayable",
      "type": "function"
    },
    {
      "inputs": [
        {
          "internalType": "address",
          "name": "from",
          "type": "address"
        },
        {
          "internalType": "address",
          "name": "to",
          "type": "address"
        },
        {
          "internalType": "uint256",
          "name": "tokenId",
          "type": "uint256"
        }
      ],
      "name": "safeTransferFrom",
      "outputs": [],
      "stateMutability": "nonpayable",
      "type": "function"
    },
    {
      "inputs": [
        {
          "internalType": "address",
          "name": "from",
          "type": "address"
        },
        {
          "internalType": "address",
          "name": "to",
          "type": "address"
        },
        {
          "internalType": "uint256",
          "name": "tokenId",
          "type": "uint256"
        },
        {
          "internalType": "bytes",
          "name": "data",
          "type": "bytes"
        }
      ],
      "name": "safeTransferFrom",
      "outputs": [],
      "stateMutability": "nonpayable",
      "type": "function"
    },
    {
      "inputs": [
        {
          "internalType": "address",
          "name": "operator",
          "type": "address"
        },
        {
          "internalType": "bool",
          "name": "approved",
          "type": "bool"
        }
      ],
      "name": "setApprovalForAll",
      "outputs": [],
      "stateMutability": "nonpayable",
      "type": "function"
    },
    {
      "inputs": [
        {
          "internalType": "bytes4",
          "name": "interfaceId",
          "type": "bytes4"
        }
      ],
      "name": "supportsInterface",
      "outputs": [
        {
          "internalType": "bool",
          "name": "",
          "type": "bool"
        }
      ],
      "stateMutability": "view",
      "type": "function"
    },
    {
      "inputs": [],
      "name": "symbol",
      "outputs": [
        {
          "internalType": "string",
          "name": "",
          "type": "string"
        }
      ],
      "stateMutability": "view",
      "type": "function"
    },
    {
      "inputs": [
        {
          "internalType": "uint256",
          "name": "tokenId",
          "type": "uint256"
        }
      ],
      "name": "tokenURI",
      "outputs": [
        {
          "internalType": "string",
          "name": "",
          "type": "string"
        }
      ],
      "stateMutability": "view",
      "type": "function"
    },
    {
      "inputs": [
        {
          "internalType": "address",
          "name": "from",
          "type": "address"
        },
        {
          "internalType": "address",
          "name": "to",
          "type": "address"
        },
        {
          "internalType": "uint256",
          "name": "tokenId",
          "type": "uint256"
        }
      ],
      "name": "transferFrom",
      "outputs": [],
      "stateMutability": "nonpayable",
      "type": "function"
    },
    {
      "inputs": [
        {
          "internalType": "address",
          "name": "newOwner",
          "type": "address"
        }
      ],
      "name": "transferOwnership",
      "outputs": [],
      "stateMutability": "nonpayable",
      "type": "function"
    },
    {
      "inputs": [
        {
          "internalType": "uint256",
          "name": "_tokenId",
          "type": "uint256"
        },
        {
          "internalType": "string",
          "name": "_newLocation",
          "type": "string"
        },
        {
          "internalType": "uint256",
          "name": "_newSpeed",
          "type": "uint256"
        }
      ],
      "name": "updateVehicleState",
      "outputs": [],
      "stateMutability": "nonpayable",
      "type": "function"
    },
    {
      "inputs": [
        {
          "internalType": "uint256",
          "name": "",
          "type": "uint256"
        }
      ],
      "name": "vehicleStates",
      "outputs": [
        {
          "internalType": "uint256",
          "name": "tokenId",
          "type": "uint256"
        },
        {
          "internalType": "string",
          "name": "location",
          "type": "string"
        },
        {
          "internalType": "uint256",
          "name": "speed",
          "type": "uint256"
        },
        {
          "internalType": "uint256",
          "name": "lastUpdateTime",
          "type": "uint256"
        },
        {
          "internalType": "enum VehicleRegistry.VehicleStatus",
          "name": "status",
          "type": "uint8"
        }
      ],
      "stateMutability": "view",
      "type": "function"
    }
  ],
  "bytecode": "0x60806040523480156200001157600080fd5b50604051620034e6380380620034e68339818101604052810190620000379190620002d2565b816040518060400160405280601281526020017f536f6e696350756c73652056656869636c6500000000000000000000000000008152506040518060400160405280600381526020017f53505600000000000000000000000000000000000000000000000000000000008152508160009081620000b5919062000593565b508060019081620000c7919062000593565b505050600073ffffffffffffffffffffffffffffffffffffffff168173ffffffffffffffffffffffffffffffffffffffff16036200013f5760006040517f1e4fbdf70000000000000000000000000000000000000000000000000000000081526004016200013691906200068b565b60405180910390fd5b6200015081620001a260201b60201c565b50600160078190555080600860006101000a81548173ffffffffffffffffffffffffffffffffffffffff021916908373ffffffffffffffffffffffffffffffffffffffff1602179055505050620006a8565b6000600660009054906101000a900473ffffffffffffffffffffffffffffffffffffffff16905081600660006101000a81548173ffffffffffffffffffffffffffffffffffffffff021916908373ffffffffffffffffffffffffffffffffffffffff1602179055508173ffffffffffffffffffffffffffffffffffffffff168173ffffffffffffffffffffffffffffffffffffffff167f8be0079c531659141344cd1fd0a4f28419497f9722a3daafe3b4186f6b6457e060405160405180910390a35050565b600080fd5b600073ffffffffffffffffffffffffffffffffffffffff82169050919050565b60006200029a826200026d565b9050919050565b620002ac816200028d565b8114620002b857600080fd5b50565b600081519050620002cc81620002a1565b92915050565b60008060408385031215620002ec57620002eb62000268565b5b6000620002fc85828601620002bb565b92505060206200030f85828601620002bb565b9150509250929050565b600081519050919050565b7f4e487b7100000000000000000000000000000000000000000000000000000000600052604160045260246000fd5b7f4e487b7100000000000000000000000000000000000000000000000000000000600052602260045260246000fd5b600060028204905060018216806200039b57607f821691505b602082108103620003b157620003b062000353565b5b50919050565b60008190508160005260206000209050919050565b60006020601f8301049050919050565b600082821b905092915050565b6000600883026200041b7fffffffffffffffffffffffffffffffffffffffffffffffffffffffffffffffff82620003dc565b620004278683620003dc565b95508019841693508086168417925050509392505050565b6000819050919050565b6000819050919050565b6000620004746200046e62000468846200043f565b62000449565b6200043f565b9050919050565b6000819050919050565b620004908362000453565b620004a86200049f826200047b565b848454620003e9565b825550505050565b600090565b620004bf620004b0565b620004cc81848462000485565b505050565b5b81811015620004f457620004e8600082620004b5565b600181019050620004d2565b5050565b601f82111562000543576200050d81620003b7565b6200051884620003cc565b8101602085101562000528578190505b620005406200053785620003cc565b830182620004d1565b50505b505050565b600082821c905092915050565b6000620005686000198460080262000548565b1980831691505092915050565b600062000583838362000555565b9150826002028217905092915050565b6200059e8262000319565b67ffffffffffffffff811115620005ba57620005b962000324565b5b620005c6825462000382565b620005d3828285620004f8565b600060209050601f8311600181146200060b5760008415620005f6578287015190505b62000602858262000575565b86555062000672565b601f1984166200061b86620003b7565b60005b8281101562000645578489015182556001820191506020850194506020810190506200061e565b8683101562000665578489015162000661601f89168262000555565b8355505b6001600288020188555050505b505050505050565b62000685816200028d565b82525050565b6000602082019050620006a260008301846200067a565b92915050565b612e2e80620006b86000396000f3fe608060405234801561001057600080fd5b50600436106101375760003560e01c806392a571b3116100b8578063c87b56dd1161007c578063c87b56dd14610350578063cad7df2114610380578063e985e9c51461039c578063f2fde38b146103cc578063fc340598146103e8578063fdf313091461040457610137565b806392a571b31461029657806395d89b41146102ca578063a22cb465146102e8578063b88d4fde14610304578063b95238511461032057610137565b806342842e0e116100ff57806342842e0e146101f25780636352211e1461020e57806370a082311461023e578063715018a61461026e5780638da5cb5b1461027857610137565b806301ffc9a71461013c57806306fdde031461016c578063081812fc1461018a578063095ea7b3146101ba57806323b872dd146101d6575b600080fd5b61015660048036038101906101519190611f15565b610434565b6040516101639190611f5d565b60405180910390f35b610174610516565b6040516101819190612008565b60405180910390f35b6101a4600480360381019061019f9190612060565b6105a8565b6040516101b191906120ce565b60405180910390f35b6101d460048036038101906101cf9190612115565b6105c4565b005b6101f060048036038101906101eb9190612155565b6105da565b005b61020c60048036038101906102079190612155565b6106dc565b005b61022860048036038101906102239190612060565b6106fc565b60405161023591906120ce565b60405180910390f35b610258600480360381019061025391906121a8565b61070e565b60405161026591906121e4565b60405180910390f35b6102766107c8565b005b6102806107dc565b60405161028d91906120ce565b60405180910390f35b6102b060048036038101906102ab9190612060565b610806565b6040516102c1959493929190612276565b60405180910390f35b6102d26108d1565b6040516102df9190612008565b60405180910390f35b61030260048036038101906102fd91906122fc565b610963565b005b61031e60048036038101906103199190612471565b610979565b005b61033a60048036038101906103359190612595565b61099e565b60405161034791906121e4565b60405180910390f35b61036a60048036038101906103659190612060565b610a90565b6040516103779190612008565b60405180910390f35b61039a600480360381019061039591906125f1565b610af9565b005b6103b660048036038101906103b19190612660565b610bb0565b6040516103c39190611f5d565b60405180910390f35b6103e660048036038101906103e191906121a8565b610c44565b005b61040260048036038101906103fd9190612060565b610cca565b005b61041e60048036038101906104199190612060565b610e86565b60405161042b919061277e565b60405180910390f35b60007f80ac58cd000000000000000000000000000000000000000000000000000000007bffffffffffffffffffffffffffffffffffffffffffffffffffffffff1916827bffffffffffffffffffffffffffffffffffffffffffffffffffffffff191614806104ff57507f5b5e139f000000000000000000000000000000000000000000000000000000007bffffffffffffffffffffffffffffffffffffffffffffffffffffffff1916827bffffffffffffffffffffffffffffffffffffffffffffffffffffffff1916145b8061050f575061050e82610f9e565b5b9050919050565b606060008054610525906127cf565b80601f0160208091040260200160405190810160405280929190818152602001828054610551906127cf565b801561059e5780601f106105735761010080835404028352916020019161059e565b820191906000526020600020905b81548152906001019060200180831161058157829003601f168201915b5050505050905090565b60006105b382611008565b506105bd82611090565b9050919050565b6105d682826105d16110cd565b6110d5565b5050565b600073ffffffffffffffffffffffffffffffffffffffff168273ffffffffffffffffffffffffffffffffffffffff160361064c5760006040517f64a0ae9200000000000000000000000000000000000000000000000000000000815260040161064391906120ce565b60405180910390fd5b6000610660838361065b6110cd565b6110e7565b90508373ffffffffffffffffffffffffffffffffffffffff168173ffffffffffffffffffffffffffffffffffffffff16146106d6578382826040517f64283d7b0000000000000000000000000000000000000000000000000000000081526004016106cd93929190612800565b60405180910390fd5b50505050565b6106f783838360405180602001604052806000815250610979565b505050565b600061070782611008565b9050919050565b60008073ffffffffffffffffffffffffffffffffffffffff168273ffffffffffffffffffffffffffffffffffffffff16036107815760006040517f89c62b6400000000000000000000000000000000000000000000000000000000815260040161077891906120ce565b60405180910390fd5b600360008373ffffffffffffffffffffffffffffffffffffffff1673ffffffffffffffffffffffffffffffffffffffff168152602001908152602001600020549050919050565b6107d0611301565b6107da6000611388565b565b6000600660009054906101000a900473ffffffffffffffffffffffffffffffffffffffff16905090565b600960205280600052604060002060009150905080600001549080600101805461082f906127cf565b80601f016020809104026020016040519081016040528092919081815260200182805461085b906127cf565b80156108a85780601f1061087d576101008083540402835291602001916108a8565b820191906000526020600020905b81548152906001019060200180831161088b57829003601f168201915b5050505050908060020154908060030154908060040160009054906101000a900460ff16905085565b6060600180546108e0906127cf565b80601f016020809104026020016040519081016040528092919081815260200182805461090c906127cf565b80156109595780601f1061092e57610100808354040283529160200191610959565b820191906000526020600020905b81548152906001019060200180831161093c57829003601f168201915b5050505050905090565b61097561096e6110cd565b838361144e565b5050565b6109848484846105da565b61099861098f6110cd565b858585856115bd565b50505050565b60006109a8611301565b60006007549050600760008154809291906109c290612866565b91905055506109d1848261176e565b6040518060a001604052808281526020018481526020016000815260200142815260200160006002811115610a0957610a086121ff565b5b81525060096000838152602001908152602001600020600082015181600001556020820151816001019081610a3e9190612a5a565b50604082015181600201556060820151816003015560808201518160040160006101000a81548160ff02191690836002811115610a7e57610a7d6121ff565b5b02179055509050508091505092915050565b6060610a9b82611008565b506000610aa661178c565b90506000815111610ac65760405180602001604052806000815250610af1565b80610ad0846117a3565b604051602001610ae1929190612b68565b6040516020818303038152906040525b915050919050565b3373ffffffffffffffffffffffffffffffffffffffff16610b19846106fc565b73ffffffffffffffffffffffffffffffffffffffff1614610b6f576040517f08c379a0000000000000000000000000000000000000000000000000000000008152600401610b6690612bfe565b60405180910390fd5b600060096000858152602001908152602001600020905082816001019081610b979190612a5a565b5081816002018190555042816003018190555050505050565b6000600560008473ffffffffffffffffffffffffffffffffffffffff1673ffffffffffffffffffffffffffffffffffffffff16815260200190815260200160002060008373ffffffffffffffffffffffffffffffffffffffff1673ffffffffffffffffffffffffffffffffffffffff16815260200190815260200160002060009054906101000a900460ff16905092915050565b610c4c611301565b600073ffffffffffffffffffffffffffffffffffffffff168173ffffffffffffffffffffffffffffffffffffffff1603610cbe5760006040517f1e4fbdf7000000000000000000000000000000000000000000000000000000008152600401610cb591906120ce565b60405180910390fd5b610cc781611388565b50565b60006001600754610cdb9190612c1e565b90503373ffffffffffffffffffffffffffffffffffffffff16610cfd826106fc565b73ffffffffffffffffffffffffffffffffffffffff1614610d53576040517f08c379a0000000000000000000000000000000000000000000000000000000008152600401610d4a90612bfe565b60405180910390fd5b6000600860009054906101000a900473ffffffffffffffffffffffffffffffffffffffff1673ffffffffffffffffffffffffffffffffffffffff1663f683786184846040518363ffffffff1660e01b8152600401610db2929190612c52565b6020604051808303816000875af1158015610dd1573d6000803e3d6000fd5b505050506040513d601f19601f82011682018060405250810190610df59190612c90565b90508015610e415760026009600084815260200190815260200160002060040160006101000a81548160ff02191690836002811115610e3757610e366121ff565b5b0217905550610e81565b60016009600084815260200190815260200160002060040160006101000a81548160ff02191690836002811115610e7b57610e7a6121ff565b5b02179055505b505050565b610e8e611e68565b600960008381526020019081526020016000206040518060a001604052908160008201548152602001600182018054610ec6906127cf565b80601f0160208091040260200160405190810160405280929190818152602001828054610ef2906127cf565b8015610f3f5780601f10610f1457610100808354040283529160200191610f3f565b820191906000526020600020905b815481529060010190602001808311610f2257829003601f168201915b5050505050815260200160028201548152602001600382015481526020016004820160009054906101000a900460ff166002811115610f8157610f806121ff565b5b6002811115610f9357610f926121ff565b5b815250509050919050565b60007f01ffc9a7000000000000000000000000000000000000000000000000000000007bffffffffffffffffffffffffffffffffffffffffffffffffffffffff1916827bffffffffffffffffffffffffffffffffffffffffffffffffffffffff1916149050919050565b60008061101483611871565b9050600073ffffffffffffffffffffffffffffffffffffffff168173ffffffffffffffffffffffffffffffffffffffff160361108757826040517f7e27328900000000000000000000000000000000000000000000000000000000815260040161107e91906121e4565b60405180910390fd5b80915050919050565b60006004600083815260200190815260200160002060009054906101000a900473ffffffffffffffffffffffffffffffffffffffff169050919050565b600033905090565b6110e283838360016118ae565b505050565b6000806110f384611871565b9050600073ffffffffffffffffffffffffffffffffffffffff168373ffffffffffffffffffffffffffffffffffffffff161461113557611134818486611a73565b5b600073ffffffffffffffffffffffffffffffffffffffff168173ffffffffffffffffffffffffffffffffffffffff16146111c6576111776000856000806118ae565b6001600360008373ffffffffffffffffffffffffffffffffffffffff1673ffffffffffffffffffffffffffffffffffffffff168152602001908152602001600020600082825403925050819055505b600073ffffffffffffffffffffffffffffffffffffffff168573ffffffffffffffffffffffffffffffffffffffff1614611249576001600360008773ffffffffffffffffffffffffffffffffffffffff1673ffffffffffffffffffffffffffffffffffffffff168152602001908152602001600020600082825401925050819055505b846002600086815260200190815260200160002060006101000a81548173ffffffffffffffffffffffffffffffffffffffff021916908373ffffffffffffffffffffffffffffffffffffffff160217905550838573ffffffffffffffffffffffffffffffffffffffff168273ffffffffffffffffffffffffffffffffffffffff167fddf252ad1be2c89b69c2b068fc378daa952ba7f163c4a11628f55a4df523b3ef60405160405180910390a4809150509392505050565b6113096110cd565b73ffffffffffffffffffffffffffffffffffffffff166113276107dc565b73ffffffffffffffffffffffffffffffffffffffff16146113865761134a6110cd565b6040517f118cdaa700000000000000000000000000000000000000000000000000000000815260040161137d91906120ce565b60405180910390fd5b565b6000600660009054906101000a900473ffffffffffffffffffffffffffffffffffffffff16905081600660006101000a81548173ffffffffffffffffffffffffffffffffffffffff021916908373ffffffffffffffffffffffffffffffffffffffff1602179055508173ffffffffffffffffffffffffffffffffffffffff168173ffffffffffffffffffffffffffffffffffffffff167f8be0079c531659141344cd1fd0a4f28419497f9722a3daafe3b4186f6b6457e060405160405180910390a35050565b600073ffffffffffffffffffffffffffffffffffffffff168273ffffffffffffffffffffffffffffffffffffffff16036114bf57816040517f5b08ba180000000000000000000000000000000000000000000000000000000081526004016114b691906120ce565b60405180910390fd5b80600560008573ffffffffffffffffffffffffffffffffffffffff1673ffffffffffffffffffffffffffffffffffffffff16815260200190815260200160002060008473ffffffffffffffffffffffffffffffffffffffff1673ffffffffffffffffffffffffffffffffffffffff16815260200190815260200160002060006101000a81548160ff0219169083151502179055508173ffffffffffffffffffffffffffffffffffffffff168373ffffffffffffffffffffffffffffffffffffffff167f17307eab39ab6107e8899845ad3d59bd9653f200f220920489ca2b5937696c31836040516115b09190611f5d565b60405180910390a3505050565b60008373ffffffffffffffffffffffffffffffffffffffff163b1115611767578273ffffffffffffffffffffffffffffffffffffffff1663150b7a02868685856040518563ffffffff1660e01b815260040161161c9493929190612d12565b6020604051808303816000875af192505050801561165857506040513d601f19601f820116820180604052508101906116559190612d73565b60015b6116dc573d8060008114611688576040519150601f19603f3d011682016040523d82523d6000602084013e61168d565b606091505b5060008151036116d457836040517f64a0ae920000000000000000000000000000000000000000000000000000000081526004016116cb91906120ce565b60405180910390fd5b805160208201fd5b63150b7a0260e01b7bffffffffffffffffffffffffffffffffffffffffffffffffffffffff1916817bffffffffffffffffffffffffffffffffffffffffffffffffffffffff19161461176557836040517f64a0ae9200000000000000000000000000000000000000000000000000000000815260040161175c91906120ce565b60405180910390fd5b505b5050505050565b611788828260405180602001604052806000815250611b37565b5050565b606060405180602001604052806000815250905090565b6060600060016117b284611b5b565b01905060008167ffffffffffffffff8111156117d1576117d0612346565b5b6040519080825280601f01601f1916602001820160405280156118035781602001600182028036833780820191505090505b509050600082602083010190505b600115611866578080600190039150507f3031323334353637383961626364656600000000000000000000000000000000600a86061a8153600a858161185a57611859612da0565b5b04945060008503611811575b819350505050919050565b60006002600083815260200190815260200160002060009054906101000a900473ffffffffffffffffffffffffffffffffffffffff169050919050565b80806118e75750600073ffffffffffffffffffffffffffffffffffffffff168273ffffffffffffffffffffffffffffffffffffffff1614155b15611a1b5760006118f784611008565b9050600073ffffffffffffffffffffffffffffffffffffffff168373ffffffffffffffffffffffffffffffffffffffff161415801561196257508273ffffffffffffffffffffffffffffffffffffffff168173ffffffffffffffffffffffffffffffffffffffff1614155b801561197557506119738184610bb0565b155b156119b757826040517fa9fbf51f0000000000000000000000000000000000000000000000000000000081526004016119ae91906120ce565b60405180910390fd5b8115611a1957838573ffffffffffffffffffffffffffffffffffffffff168273ffffffffffffffffffffffffffffffffffffffff167f8c5be1e5ebec7d5bd14f71427d1e84f3dd0314c0f7b2291e5b200ac8c7c3b92560405160405180910390a45b505b836004600085815260200190815260200160002060006101000a81548173ffffffffffffffffffffffffffffffffffffffff021916908373ffffffffffffffffffffffffffffffffffffffff16021790555050505050565b611a7e838383611cae565b611b3257600073ffffffffffffffffffffffffffffffffffffffff168373ffffffffffffffffffffffffffffffffffffffff1603611af357806040517f7e273289000000000000000000000000000000000000000000000000000000008152600401611aea91906121e4565b60405180910390fd5b81816040517f177e802f000000000000000000000000000000000000000000000000000000008152600401611b29929190612dcf565b60405180910390fd5b505050565b611b418383611d6f565b611b56611b4c6110cd565b60008585856115bd565b505050565b600080600090507a184f03e93ff9f4daa797ed6e38ed64bf6a1f0100000000000000008310611bb9577a184f03e93ff9f4daa797ed6e38ed64bf6a1f0100000000000000008381611baf57611bae612da0565b5b0492506040810190505b6d04ee2d6d415b85acef81000000008310611bf6576d04ee2d6d415b85acef81000000008381611bec57611beb612da0565b5b0492506020810190505b662386f26fc100008310611c2557662386f26fc100008381611c1b57611c1a612da0565b5b0492506010810190505b6305f5e1008310611c4e576305f5e1008381611c4457611c43612da0565b5b0492506008810190505b6127108310611c73576127108381611c6957611c68612da0565b5b0492506004810190505b60648310611c965760648381611c8c57611c8b612da0565b5b0492506002810190505b600a8310611ca5576001810190505b80915050919050565b60008073ffffffffffffffffffffffffffffffffffffffff168373ffffffffffffffffffffffffffffffffffffffff1614158015611d6657508273ffffffffffffffffffffffffffffffffffffffff168473ffffffffffffffffffffffffffffffffffffffff161480611d275750611d268484610bb0565b5b80611d6557508273ffffffffffffffffffffffffffffffffffffffff16611d4d83611090565b73ffffffffffffffffffffffffffffffffffffffff16145b5b90509392505050565b600073ffffffffffffffffffffffffffffffffffffffff168273ffffffffffffffffffffffffffffffffffffffff1603611de15760006040517f64a0ae92000000000000000000000000000000000000000000000000000000008152600401611dd891906120ce565b60405180910390fd5b6000611def838360006110e7565b9050600073ffffffffffffffffffffffffffffffffffffffff168173ffffffffffffffffffffffffffffffffffffffff1614611e635760006040517f73c6ac6e000000000000000000000000000000000000000000000000000000008152600401611e5a91906120ce565b60405180910390fd5b505050565b6040518060a001604052806000815260200160608152602001600081526020016000815260200160006002811115611ea357611ea26121ff565b5b81525090565b6000604051905090565b600080fd5b600080fd5b60007fffffffff0000000000000000000000000000000000000000000000000000000082169050919050565b611ef281611ebd565b8114611efd57600080fd5b50565b600081359050611f0f81611ee9565b92915050565b600060208284031215611f2b57611f2a611eb3565b5b6000611f3984828501611f00565b91505092915050565b60008115159050919050565b611f5781611f42565b82525050565b6000602082019050611f726000830184611f4e565b92915050565b600081519050919050565b600082825260208201905092915050565b60005b83811015611fb2578082015181840152602081019050611f97565b60008484015250505050565b6000601f19601f8301169050919050565b6000611fda82611f78565b611fe48185611f83565b9350611ff4818560208601611f94565b611ffd81611fbe565b840191505092915050565b600060208201905081810360008301526120228184611fcf565b905092915050565b6000819050919050565b61203d8161202a565b811461204857600080fd5b50565b60008135905061205a81612034565b92915050565b60006020828403121561207657612075611eb3565b5b60006120848482850161204b565b91505092915050565b600073ffffffffffffffffffffffffffffffffffffffff82169050919050565b60006120b88261208d565b9050919050565b6120c8816120ad565b82525050565b60006020820190506120e360008301846120bf565b92915050565b6120f2816120ad565b81146120fd57600080fd5b50565b60008135905061210f816120e9565b92915050565b6000806040838503121561212c5761212b611eb3565b5b600061213a85828601612100565b925050602061214b8582860161204b565b9150509250929050565b60008060006060848603121561216e5761216d611eb3565b5b600061217c86828701612100565b935050602061218d86828701612100565b925050604061219e8682870161204b565b9150509250925092565b6000602082840312156121be576121bd611eb3565b5b60006121cc84828501612100565b91505092915050565b6121de8161202a565b82525050565b60006020820190506121f960008301846121d5565b92915050565b7f4e487b7100000000000000000000000000000000000000000000000000000000600052602160045260246000fd5b6003811061223f5761223e6121ff565b5b50565b60008190506122508261222e565b919050565b600061226082612242565b9050919050565b61227081612255565b82525050565b600060a08201905061228b60008301886121d5565b818103602083015261229d8187611fcf565b90506122ac60408301866121d5565b6122b960608301856121d5565b6122c66080830184612267565b9695505050505050565b6122d981611f42565b81146122e457600080fd5b50565b6000813590506122f6816122d0565b92915050565b6000806040838503121561231357612312611eb3565b5b600061232185828601612100565b9250506020612332858286016122e7565b9150509250929050565b600080fd5b600080fd5b7f4e487b7100000000000000000000000000000000000000000000000000000000600052604160045260246000fd5b61237e82611fbe565b810181811067ffffffffffffffff8211171561239d5761239c612346565b5b80604052505050565b60006123b0611ea9565b90506123bc8282612375565b919050565b600067ffffffffffffffff8211156123dc576123db612346565b5b6123e582611fbe565b9050602081019050919050565b82818337600083830152505050565b600061241461240f846123c1565b6123a6565b9050828152602081018484840111156124305761242f612341565b5b61243b8482856123f2565b509392505050565b600082601f8301126124585761245761233c565b5b8135612468848260208601612401565b91505092915050565b6000806000806080858703121561248b5761248a611eb3565b5b600061249987828801612100565b94505060206124aa87828801612100565b93505060406124bb8782880161204b565b925050606085013567ffffffffffffffff8111156124dc576124db611eb8565b5b6124e887828801612443565b91505092959194509250565b600067ffffffffffffffff82111561250f5761250e612346565b5b61251882611fbe565b9050602081019050919050565b6000612538612533846124f4565b6123a6565b90508281526020810184848401111561255457612553612341565b5b61255f8482856123f2565b509392505050565b600082601f83011261257c5761257b61233c565b5b813561258c848260208601612525565b91505092915050565b600080604083850312156125ac576125ab611eb3565b5b60006125ba85828601612100565b925050602083013567ffffffffffffffff8111156125db576125da611eb8565b5b6125e785828601612567565b9150509250929050565b60008060006060848603121561260a57612609611eb3565b5b60006126188682870161204b565b935050602084013567ffffffffffffffff81111561263957612638611eb8565b5b61264586828701612567565b92505060406126568682870161204b565b9150509250925092565b6000806040838503121561267757612676611eb3565b5b600061268585828601612100565b925050602061269685828601612100565b9150509250929050565b6126a98161202a565b82525050565b600082825260208201905092915050565b60006126cb82611f78565b6126d581856126af565b93506126e5818560208601611f94565b6126ee81611fbe565b840191505092915050565b61270281612255565b82525050565b600060a08301600083015161272060008601826126a0565b506020830151848203602086015261273882826126c0565b915050604083015161274d60408601826126a0565b50606083015161276060608601826126a0565b50608083015161277360808601826126f9565b508091505092915050565b600060208201905081810360008301526127988184612708565b905092915050565b7f4e487b7100000000000000000000000000000000000000000000000000000000600052602260045260246000fd5b600060028204905060018216806127e757607f821691505b6020821081036127fa576127f96127a0565b5b50919050565b600060608201905061281560008301866120bf565b61282260208301856121d5565b61282f60408301846120bf565b949350505050565b7f4e487b7100000000000000000000000000000000000000000000000000000000600052601160045260246000fd5b60006128718261202a565b91507fffffffffffffffffffffffffffffffffffffffffffffffffffffffffffffffff82036128a3576128a2612837565b5b600182019050919050565b60008190508160005260206000209050919050565b60006020601f8301049050919050565b600082821b905092915050565b6000600883026129107fffffffffffffffffffffffffffffffffffffffffffffffffffffffffffffffff826128d3565b61291a86836128d3565b95508019841693508086168417925050509392505050565b6000819050919050565b600061295761295261294d8461202a565b612932565b61202a565b9050919050565b6000819050919050565b6129718361293c565b61298561297d8261295e565b8484546128e0565b825550505050565b600090565b61299a61298d565b6129a5818484612968565b505050565b5b818110156129c9576129be600082612992565b6001810190506129ab565b5050565b601f821115612a0e576129df816128ae565b6129e8846128c3565b810160208510156129f7578190505b612a0b612a03856128c3565b8301826129aa565b50505b505050565b600082821c905092915050565b6000612a3160001984600802612a13565b1980831691505092915050565b6000612a4a8383612a20565b9150826002028217905092915050565b612a6382611f78565b67ffffffffffffffff811115612a7c57612a7b612346565b5b612a8682546127cf565b612a918282856129cd565b600060209050601f831160018114612ac45760008415612ab2578287015190505b612abc8582612a3e565b865550612b24565b601f198416612ad2866128ae565b60005b82811015612afa57848901518255600182019150602085019450602081019050612ad5565b86831015612b175784890151612b13601f891682612a20565b8355505b6001600288020188555050505b505050505050565b600081905092915050565b6000612b4282611f78565b612b4c8185612b2c565b9350612b5c818560208601611f94565b80840191505092915050565b6000612b748285612b37565b9150612b808284612b37565b91508190509392505050565b7f43616c6c6572206973206e6f7420746865206f776e6572206f6620746869732060008201527f76656869636c6500000000000000000000000000000000000000000000000000602082015250565b6000612be8602783611f83565b9150612bf382612b8c565b604082019050919050565b60006020820190508181036000830152612c1781612bdb565b9050919050565b6000612c298261202a565b9150612c348361202a565b9250828203905081811115612c4c57612c4b612837565b5b92915050565b6000604082019050612c6760008301856121d5565b612c7460208301846121d5565b9392505050565b600081519050612c8a816122d0565b92915050565b600060208284031215612ca657612ca5611eb3565b5b6000612cb484828501612c7b565b91505092915050565b600081519050919050565b600082825260208201905092915050565b6000612ce482612cbd565b612cee8185612cc8565b9350612cfe818560208601611f94565b612d0781611fbe565b840191505092915050565b6000608082019050612d2760008301876120bf565b612d3460208301866120bf565b612d4160408301856121d5565b8181036060830152612d538184612cd9565b905095945050505050565b600081519050612d6d81611ee9565b92915050565b600060208284031215612d8957612d88611eb3565b5b6000612d9784828501612d5e565b91505092915050565b7f4e487b7100000000000000000000000000000000000000000000000000000000600052601260045260246000fd5b6000604082019050612de460008301856120bf565b612df160208301846121d5565b939250505056fea2646970667358221220bb0a44dbb369e26acaca6fde14804f4cd665d0e34005c90649782b32dca2eadc64736f6c63430008140033",
  "linkReferences": {},
  "deployedLinkReferences": {}
}